:100000000EC01BC01BC019C018C017C016C015C039
:1000100014C013C012C011C010C00FC00EC01124F4
:100020001FBECFEDCDBF10E0A0E6B0E001C01D9235
:10003000A136B107E1F733D06DC2E2CF1F920F9224
:1000400000905F000F9211242F938F939F93EF9353
:10005000FF93CF93DF93CDB7DD2786E390E0FC01DC
:100060008081882F90E08071992721E0009709F422
:1000700020E0222321F081E08093600002C01092F2
:1000800060000000DF91CF91FF91EF919F918F91E0
:100090002F910F9000925F000F901F901895CF93B3
:1000A000DF93CDB7DD27CC51CDBFF894109260001F
:1000B00087E390E027E330E0F90120812860FC012C
:1000C000208388E390E028E330E0F9012081286173
:1000D000FC01208385E390E020E1FC0120838BE597
:1000E00090E020E2FC012083789488E390E0FC011A
:1000F000808188E390E0FC011082EAC088E390E010
:1001000028E330E0F9012081277FFC01208380E093
:1001100090E0A8ECB2E489839A83AB83BC8320E0AF
:1001200030E04AEF54E469817A818B819C815FD110
:10013000DC01CB018D839E83AF83B88720E030E064
:1001400040E85FE36D817E818F819885CFD08823E1
:100150002CF481E090E09A8789873BC020E03FEF54
:100160004FE757E46D817E818F8198853CD11816C9
:100170003CF520E030E040E251E469817A818B81F6
:100180009C8135D1DC01CB01BC01CD01B3D0DC01B8
:10019000CB019A8789870FC088EC90E09C878B877A
:1001A0008B859C850197F1F79C878B8789859A853C
:1001B00001979A87898789859A85009769F713C07F
:1001C0006D817E818F81988595D0DC01CB019A87E6
:1001D000898789859A859E878D878D859E850197DC
:1001E000F1F79E878D8788E390E028E330E0F901FE
:1001F00020812860FC01208380E090E0A8ECB2E43C
:100200008F87988BA98BBA8B20E030E04AEF54E4BB
:100210006F85788989899A89EAD0DC01CB018B8B3B
:100220009C8BAD8BBE8B20E030E040E85FE36B89B8
:100230007C898D899E895AD088232CF481E090E0B6
:10024000988F8F8B3BC020E03FEF4FE757E46B89DF
:100250007C898D899E89C7D018163CF520E030E056
:1002600040E251E46F85788989899A89C0D0DC01A0
:10027000CB01BC01CD013ED0DC01CB01988F8F8B2F
:100280000FC088EC90E09A8F898F898D9A8D0197A5
:10029000F1F79A8F898F8F89988D0197988F8F8B1F
:1002A0008F89988D009769F713C06B897C898D8938
:1002B0009E8920D0DC01CB01988F8F8B8F89988D00
:1002C0009C8F8B8F8B8D9C8D0197F1F79C8F8B8FE3
:1002D00080916000882309F011CF88E390E0FC0151
:1002E000808188E390E0FC01108207CF2FD008F4D2
:1002F00081E0089557D088F09F5790F0B92F992743
:10030000B751A0F0D1F0660F771F881F991F1AF020
:10031000BA95C9F712C0B13081F05ED0B1E008954E
:100320005BC0672F782F8827B85F39F0B93FCCF3CF
:10033000869577956795B395D9F73EF49095809516
:10034000709561957F4F8F4F9F4F0895990F0008CB
:10035000550FAA0BE0E8FEEF16161706E807F90797
:10036000C0F012161306E407F50798F0621B730B32
:10037000840B950B39F40A2661F0232B242B252BB3
:1003800021F408950A2609F4A140A6958FEF811D56
:10039000811D089557FD9058440F551F59F05F3F38
:1003A00071F04795880F97FB991F61F09F3F79F097
:1003B00087950895121613061406551FF2CF469519
:1003C000F1DF08C0161617061806991FF1CF86959B
:1003D0007105610508940895E894BB27662777277F
:1003E000CB0197F90895B2DF08F48FEF08950AD092
:1003F00080C071D028F076D018F0952309F062C043
:1004000067C0EBCFC7DFA8F39923D9F35523C9F30E
:10041000950F50E0551FAA27EE27FF27BB27002482
:100420000894679520F4E20FF31FB41F0A1E220FF1
:10043000331F441FAA1F6695A9F7779530F4F30F71
:10044000B41F0A1E121E08F46395330F441FAA1F1F
:10045000221F769599F7879520F4B40F0A1E121E75
:10046000631F440FAA1F221F331F8695A9F7862FEB
:10047000712D602D11249F5750408AF0E1F08823A0
:100480004AF0EE0FFF1FBB1F661F771F881F91509A
:100490005040A9F79E3F510570F014C09ECF5F3FBA
:1004A000ECF3983EDCF3869577956795B795F795CD
:1004B000E7959F5FC1F7FE2B880F911D9695879555
:1004C00097F9089597F99F6780E870E060E00895D4
:1004D0009FEF80EC089500240A941616170618065C
:1004E0000906089500240A94121613061406050638
:1004F0000895092E0394000C11F4882352F0BB0FC9
:1005000040F4BF2B11F460FF04C06F5F7F4F8F4F2B
:080510009F4F0895F894FFCFFE
:00000001FF
